:04000000A9EF06F06E
:0800080059EF00F000000000B8
:100010000000000000000000046ED8CF05F0E0CF23
:1000200006F00001E9CF0CF0EACF07F0E1CF08F0CD
:10003000E2CF09F0D9CF0AF0DACF0BF0F3CF12F00C
:10004000F4CF13F0FACF14F0F5CF15F0F6CF16F089
:10005000F7CF17F000C00EF001C00FF002C010F093
:1000600003C011F00EC000F00FC001F010C002F08C
:1000700011C003F00CC0E9FF07C0EAFF078E08C0FB
:10008000E1FF09C0E2FF0AC0D9FF0BC0DAFF12C0CE
:10009000F3FF13C0F4FF14C0FAFF15C0F5FF16C03C
:1000A000F6FF17C0F7FF045006C0E0FF05C0D8FFF9
:1000B0001000196ED8CF1AF0E0CF1BF00001E9CF85
:1000C00021F0EACF1CF0E1CF1DF0E2CF1EF0D9CF36
:1000D0001FF0DACF20F0F3CF27F0F4CF28F0FACFDB
:1000E00029F0F5CF2AF0F6CF2BF0F7CF2CF000C097
:1000F00023F001C024F002C025F003C026F0F2A8CE
:1001000085EF00F0F2B2F2EF00F023C000F024C05F
:1001100001F025C002F026C003F021C0E9FF1CC099
:10012000EAFF1C8E1DC0E1FF1EC0E2FF1FC0D9FF09
:1001300020C0DAFF27C0F3FF28C0F4FF29C0FAFF70
:100140002AC0F5FF2BC0F6FF2CC0F7FF19501BC0CB
:10015000E0FF1AC0D8FF1000416E73776572696EB8
:10016000672E2E2E00004154442B31383638363855
:1001700032323031353B0D0A000043616C6C696EE0
:10018000672E2E2E0000456E64696E672E2E2E009F
:10019000796F7520736169642068656C6C6F00000D
:1001A000938081B0FED7080E006E806B009E0CD04D
:1001B000D89081B0D8808033008C06D0009C002E6F
:1001C000F7D780C001F00CD0500E00BE150E016EA6
:1001D000012EFED7000000BEE9D700BCEFD7E8D75C
:1001E000F3EF00F0DDD701C078F078500D0805E19D
:1001F0007950010802E2010E7A6E036A7950640FA9
:10020000E96E000E0320EA6E78C0EFFF792A7A2C9F
:1002100001D0796AF29285EF00F09EA8FED7AD6E0C
:100220001200EA6A7F0EE96EEF500EE0030E016ED7
:10023000006A002EFED7012EFBD73C0E006E002E6A
:10024000FED700D0EF2EF2D712001E0E7F6EE9DF30
:10025000120092988998080E016E00D00000018E5D
:100260000ED0019E7F32D8B08988D8A08998018CA1
:1002700006D0019C012EF6D700D000008988500ED0
:10028000E96EE92EFED700D001BEEBD701BCF1D755
:1002900012007DC07FF0DDDF12007B6A7B506F08AB
:1002A0000DE0620EBADFD1DF9EAA04D09EAAFED76F
:1002B000AECF7BF07BC07DF0ECDFF0D77B6A00EF48
:1002C00007F07C6A7C506F0810E06C0EA6DFBDDF83
:1002D0007B50A3DFBADF9EAA04D09EAAFED7AECF82
:1002E0007CF07CC07DF0D5DFEDD704EF07F07C6AB1
:1002F0007C506F0810E06F0E90DFA7DF7B508DDF22
:10030000A4DF9EAA04D09EAAFED7AECF7CF07CC00C
:100310007DF0BFDFEDD708EF07F07B6A7C6A7B508A
:100320006F0810E0730E79DF90DF440E76DF8DDF0B
:100330009EAA04D09EAAFED7AECF7BF07BC07DF0F4
:10034000A8DFEDD77C5077080AE09EAA04D09EAAC9
:10035000FED7AECF7CF07CC07DF09BDFF3D77C6A0C
:100360007B6A80EF06F07C6A7B50E60FD8B058D2EB
:100370001A0F12EF04F07C506F0813E0770E4DDF78
:1003800064DF410E4ADF61DF410E47DF5EDF500E62
:1003900044DF5BDF9EAA04D09EAAFED7AECF7CF0DE
:1003A000EAD73ED27C506F0813E0770E36DF4DDF80
:1003B000410E33DF4ADF420E30DF47DF480E2DDFCC
:1003C00044DF9EAA04D09EAAFED7AECF7CF0EAD727
:1003D00027D27C506F0813E0770E1FDF36DF410E07
:1003E0001CDF33DF430E19DF30DF480E16DF2DDF51
:1003F0009EAA04D09EAAFED7AECF7CF0EAD710D238
:100400007C506F0813E0770E08DF1FDF410E05DF19
:100410001CDF440E02DF19DF480EFFDE16DF9EAA46
:1004200004D09EAAFED7AECF7CF0EAD7F9D17C509B
:100430006F0813E0770EF1DE08DF410EEEDE05DF18
:10044000450EEBDE02DF480EE8DEFFDE9EAA04D09A
:100450009EAAFED7AECF7CF0EAD7E2D17C506F08DF
:1004600013E0770EDADEF1DE410ED7DEEEDE460E69
:10047000D4DEEBDE480ED1DEE8DE9EAA04D09EAAD2
:10048000FED7AECF7CF0EAD7CBD17C506F0813E01B
:10049000770EC3DEDADE410EC0DED7DE470EBDDEEC
:1004A000D4DE480EBADED1DE9EAA04D09EAAFED7C4
:1004B000AECF7CF0EAD7B4D17C506F0813E0770E52
:1004C000ACDEC3DE410EA9DEC0DE480EA6DEBDDE18
:1004D000480EA3DEBADE9EAA04D09EAAFED7AECFF7
:1004E0007CF0EAD79DD17C506F0813E0770E95DE43
:1004F000ACDE410E92DEA9DE490E8FDEA6DE480E8E
:100500008CDEA3DE9EAA04D09EAAFED7AECF7CF0DE
:10051000EAD786D17C506F0813E0770E7EDE95DE39
:10052000410E7BDE92DE4A0E78DE8FDE480E75DEEF
:100530008CDE9EAA04D09EAAFED7AECF7CF0EAD76E
:100540006FD17C506F0813E0770E67DE7EDE410EC0
:1005500064DE7BDE4B0E61DE78DE480E5EDE75DE2D
:100560009EAA04D09EAAFED7AECF7CF0EAD758D17F
:100570007C506F0813E0770E50DE67DE410E4DDED3
:1005800064DE4C0E4ADE61DE480E47DE5EDE9EAA69
:1005900004D09EAAFED7AECF7CF0EAD741D17C50E2
:1005A0006F0813E0770E39DE50DE410E36DE4DDE89
:1005B0004D0E33DE4ADE480E30DE47DE9EAA04D002
:1005C0009EAAFED7AECF7CF0EAD72AD17C506F0826
:1005D00013E0770E22DE39DE410E1FDE36DE4E0ED0
:1005E0001CDE33DE480E19DE30DE9EAA04D09EAA41
:1005F000FED7AECF7CF0EAD713D17C506F0813E062
:10060000770E0BDE22DE410E08DE1FDE4F0E05DE0A
:100610001CDE480E02DE19DE9EAA04D09EAAFED77A
:10062000AECF7CF0EAD7FCD07C506F0813E0770E99
:10063000F4DD0BDE410EF1DD08DE500EEEDD05DEF1
:10064000480EEBDD02DE9EAA04D09EAAFED7AECFF6
:100650007CF0EAD7E5D07C506F0813E0770EDDDD43
:10066000F4DD410EDADDF1DD510ED7DDEEDD480EB1
:10067000D4DDEBDD9EAA04D09EAAFED7AECF7CF0DF
:10068000EAD7CED07C506F0813E0770EC6DDDDDDF3
:10069000410EC3DDDADD520EC0DDD7DD480EBDDD13
:1006A000D4DD9EAA04D09EAAFED7AECF7CF0EAD7B6
:1006B000B7D07C506F0813E0770EAFDDC6DD410E7A
:1006C000ACDDC3DD530EA9DDC0DD480EA6DDBDDD0A
:1006D0009EAA04D09EAAFED7AECF7CF0EAD7A0D0C7
:1006E0007C506F0813E0770E98DDAFDD410E95DD8D
:1006F000ACDD540E92DDA9DD480E8FDDA6DD9EAA8D
:1007000004D09EAAFED7AECF7CF0EAD789D07C5029
:100710006F0813E0770E81DD98DD410E7EDD95DDFB
:10072000550E7BDD92DD480E78DD8FDD9EAA04D06C
:100730009EAAFED7AECF7CF0EAD772D07C506F086D
:1007400013E0770E6ADD81DD410E67DD7EDD560E3A
:1007500064DD7BDD480E61DD78DD9EAA04D09EAAB3
:10076000FED7AECF7CF0EAD75BD07C506F0813E0A9
:10077000770E53DD6ADD410E50DD67DD570E4DDD2E
:1007800064DD480E4ADD61DD9EAA04D09EAAFED734
:10079000AECF7CF0EAD744D07C506F0813E0770EE0
:1007A0003CDD53DD410E39DD50DD580E36DD4DDDCB
:1007B000480E33DD4ADD9EAA04D09EAAFED7AECFF6
:1007C0007CF0EAD72DD07C506F0813E0770E25DD42
:1007D0003CDD410E22DD39DD590E1FDD36DD480ED0
:1007E0001CDD33DD9EAA04D09EAAFED7AECF7CF0DE
:1007F000EAD716D07C506F0813E0770E0EDD25DDAA
:10080000410E0BDD22DD5A0E08DD1FDD480E05DD31
:100810001CDD9EAA04D09EAAFED7AECF7CF0EAD7FC
:1008200084EF06F0E824F76AF7363F0FF66E080EFD
:10083000F7220A00F550FA6E0800F550F96E7603BB
:10084000A403D20300042E045C048A04B804E60462
:100850001405420570059E05CC05FA0528065606C6
:100860008406B206E0060E073C076A079807C6072B
:10087000F4070900F5520CE0F6CF7DF0F7CF7EF0DB
:10088000F5CF7FF0E6DC7DC0F6FF7EC0F7FFF1D745
:100890008DEF04F07B6A7C6A690EBFDCD6DC420E09
:1008A000BCDCD3DC929089809EAA04D09EAAFED79D
:1008B000AECF7BF0929089907B5073082FE1200E91
:1008C000ACDCC3DC7B6A9EAAFED7AECF7BF0410EC8
:1008D0007B5C7C6E7CC07DF0DCDC7C500FE0010A30
:1008E0000EE0030A0DE0010A0CE0070A0BE0010A22
:1008F0000AE0030A09E0010A08E00DD00ED00DD08D
:100900000CD00BD00AD009D008D0900EF66E010E94
:10091000F76EAFD702D0730E7B6E07D07B50740892
:1009200001E103D07B50650800E188EF06F07E6AA4
:100930007D507E5C0CE292908980320E7F6E71DC7D
:1009400092908990640E7F6E6CDC7E2AF1D7120043
:100950007B6A7C6A690E61DC78DC430E5EDC75DCE8
:10096000929089809EAA04D09EAAFED7AECF7BF03B
:10097000929089907B50730821E1200E4EDC65DC5B
:100980007B6A9EAAFED7AECF7BF0410E7B5C7C6E6D
:100990007C500BE0010A0AE0030A09E0010A08E0C2
:1009A000070A07E0010A06E006D007D006D005D006
:1009B00004D003D002D0730E7B6E07D07B50740836
:1009C00001E103D07B50650800E18DEF06F07B6A02
:1009D0007C6A690E22DC39DC440E1FDC36DC929026
:1009E00089809EAA04D09EAAFED7AECF7BF09290BB
:1009F00089907B50730833E1200E0FDC26DC7B6A84
:100A00009EAAFED7AECF7BF0410E7B5C7C6E7C5005
:100A100015E0010A14E0030A16E0010A15E0070ACE
:100A200014E0010A13E0030A12E0010A11E00F0AC0
:100A300010E0010A0FE0030A0EE00ED00FD0010E05
:100A40007D6E75DF0BD00AD009D008D007D006D054
:100A500005D004D003D002D0730E7B6E07D07B503C
:100A6000740801E103D07B50650800E192EF06F0C5
:100A700093928A92080E016E00D00000018E0ED073
:100A8000019E7F32D8B08A82D8A08A92018C06D08B
:100A9000019C012EF6D700D000008A82500EE96E2C
:100AA000E92EFED700D001BEEBD701BCF1D762EF33
:100AB00005F0EF520FE0EACF7EF0E9CF7DF0EFCF07
:100AC0007FF0D6D77EC0EAFF7DC0E9FFE92AD8B41F
:100AD000EA2AEFD712007B6A7C6A640E0DEC01F003
:100AE00025EC01F0420E0DEC01F025EC01F09290A6
:100AF00089809EAA04D09EAAFED7AECF7BF09290AA
:100B000089907B50730836E1200E0DEC01F025EC46
:100B100001F07B6A9EAAFED7AECF7BF0410E7B5CD4
:100B20007C6E7C500BE0010A0CE0030A12E0010A23
:100B300013E0070A14E0010A15E019D0050E626EF1
:100B400018D0EA6A5C0EE96EB4DF010E7D6EEFDE4E
:100B500010D0050E626E0DD0050E626E0AD0060E24
:100B6000626E07D0EA6A560EE96EA3DF02D0730EFA
:100B70007B6E0BD07B50740803E1040E626E05D0CF
:100B80007B50650802E1040E626E97EF06F07B6A07
:100B90007C6A640E0DEC01F025EC01F0430E0DECC7
:100BA00001F025EC01F0929089809EAA04D09EAAC3
:100BB000FED7AECF7BF0929089907B5073082CE1EA
:100BC000200E0DEC01F025EC01F07B6A9EAAFED709
:100BD000AECF7BF0410E7B5C7C6E7C500FE0010A57
:100BE0000EE0030A10E0010A0FE0070A0EE0010A16
:100BF0000DE0030A0CE0010A0BE00BD00CD0010E53
:100C00007D6E95DE08D007D006D005D004D003D085
:100C100002D0730E7B6E07D07B50740801E103D0C5
:100C20007B50650800E19CEF06F07B6A7C6A640EED
:100C30000DEC01F025EC01F0440E0DEC01F025EC7B
:100C400001F0929089809EAA04D09EAAFED7AECFD2
:100C50007BF0929089907B50730835E1200E0DEC6B
:100C600001F025EC01F07B6A9EAAFED7AECF7BF0A7
:100C7000410E7B5C7C6E7C5015E0010A14E0030A97
:100C800016E0010A15E0070A14E0010A13E0030A5E
:100C900012E0010A11E00F0A10E0010A0FE0030A56
:100CA0000EE00ED00FD0010E7D6E41DE0BD00AD0CB
:100CB00009D008D007D006D005D004D003D002D088
:100CC000730E7B6E07D07B50740801E103D07B501C
:100CD000650800E1A1EF06F06250000A0FE0010A8A
:100CE00016E0030A19E0010A1CE0070A1FE0010AE6
:100CF00022E0030A25E0010A28E028D08DEF01F068
:100D00000C0E7B6EB3EF01F0040E626E20D0C2D5E4
:100D1000010E7D6E0CDE1BD01BD6010E7D6E07DE34
:100D200016D055D6010E7D6E02DE11D0D4D6010E3E
:100D30007D6EFDDD0CD02BD7010E7D6EF8DD07D06A
:100D400074D7010E7D6EF3DD02D001D0626A0AEF26
:100D500007F0F86AD08E078EB896400EAF6EA60EDA
:100D6000AC6E900EAB6E93928A8292988988356AA7
:100D7000346A366A626A636A796A7A6AC150C00BF9
:100D80000F09C16E070EB46E1AD002002E00002BA0
:100D9000003741540D0A00415426570D0A004154B2
:100DA00045300D0A0041542B434D47463D310D0A55
:100DB000004154480D0A004154410D0A0000000E44
:100DC000F86E0D0EF76E8A0EF66E0900F550006E85
:100DD000000A13E00900F550016EE8BE05D00F0BC4
:100DE000EA6E0900F5CFE9FF01BC090001AC09007A
:100DF000F5CFEEFF004EE9D7F9D7F86A4DEF01F0D5
:100E0000410E7B6E61EF01F0460E7B6E77EF01F0D5
:080E1000626A62D7FED7FFD72A
:020000040030CA
:0E00000000C2191E008700000FC00FE00F4065
:00000001FF
;PIC18F4620
;CRC=78FA  CREATED="29-Mar-17 10:46"
