:100000004AEF04F00000000000EF00F000000000E4
:0A0010000000000000000000F3D71C
:10001C000B1E0A1E091E081E082AD8B4092AD8B4B9
:08002C000A2AD8B40B2A1200C5
:100034000450085E0550D8A0053C095E0650D8A0BF
:10004400063C0A5E0750D8A0073C0B5E0336070E39
:100054000C6E0334083609360A360B36045003A0F6
:100064000ED0085E0550D8A0053C095E0650D8A005
:10007400063C0A5E0750D8A0073C0B5E0DD008264C
:100084000550D8B0053C09260650D8B0063C0A26CF
:100094000750D8B0073C0B2603360C2EDAD70234AF
:1000A400083609360A360B36045003A00ED0085E13
:1000B4000550D8A0053C095E0650D8A0063C0A5E4F
:1000C4000750D8A0073C0B5E0DD008260550D8B0C9
:1000D400053C09260650D8B0063C0A260750D8B07D
:1000E400073C0B260236070E0C6E0234083609361E
:1000F4000A360B36045002A00ED0085E0550D8A074
:10010400053C095E0650D8A0063C0A5E0750D8A0FC
:10011400073C0B5E0DD008260550D8B0053C0926D7
:100124000650D8B0063C0A260750D8B0073C0B2628
:1001340002360C2EDAD70134083609360A360B3665
:10014400045002A00ED0085E0550D8A0053C095EFC
:100154000650D8A0063C0A5E0750D8A0073C0B5EA8
:100164000DD008260550D8B0053C09260650D8B055
:10017400063C0A260750D8B0073C0B260136070E6A
:100184000C6E0134083609360A360B36045001A0C9
:100194000ED0085E0550D8A0053C095E0650D8A0D4
:1001A400063C0A5E0750D8A0073C0B5E0DD008261B
:1001B4000550D8B0053C09260650D8B0063C0A269E
:1001C4000750D8B0073C0B2601360C2EDAD7003482
:1001D400083609360A360B36045001A00ED0085EE4
:1001E4000550D8A0053C095E0650D8A0063C0A5E1E
:1001F4000750D8A0073C0B5E0DD008260550D8B098
:10020400053C09260650D8B0063C0A260750D8B04B
:10021400073C0B260036070E0C6E003408360936F0
:100224000A360B36045000A00ED0085E0550D8A044
:10023400053C095E0650D8A0063C0A5E0750D8A0CB
:10024400073C0B5E0DD008260550D8B0053C0926A6
:100254000650D8B0063C0A260750D8B0073C0B26F7
:1002640000360C2EDAD700B00ED004500826055004
:10027400D8B0053C09260650D8B0063C0A260750DB
:08028400D8B0073C0B26120064
:10028C00AECF01F0ABA202D0AB98AB8801C000F0AE
:02029C0012004E
:0A029E00000E9EBA010E006E120061
:0E02A800ACB202D00000FCD747C0ADFF120080
:1002B600220E0C6E086A096A0A6A0B6A0C06D8B422
:1002C6001FD0D8900B320A3209320832033202327A
:1002D60001320032D8A0F2D70C06D8B409D00450A7
:1002E60008260550092206500A2207500B22EAD793
:1002F600045008260550092206500A2207500B22F0
:020306001200E3
:020308001200E1
:10030A00496A4A6A800E4A18006E800E4818005CD4
:10031A0002E14750495C18E28C80410E0C6EEE0EE9
:10032A000D6E0D2EFED70C2EFCD700008C90820E7F
:10033A000C6EDD0E0D6E0D2EFED70C2EFCD70000B6
:0A034A000000494A4A2ADED71200DB
:10035400A00E006E0F0E016E000E026E036E1200F0
:100364000450000A12E10550000A0FE10650000A89
:100374000CE10750000A09E1FF0E006EFF0E016E4A
:10038400FF0E026E7F0E036E97D00C6A07BE0C2A16
:100394000D6A0B6A0A6A096A086A0350021001109E
:1003A4000010D8B484D0035007180E6E0EBE0D1E74
:1003B40007AE0BD0041E051E061E071E042AD8B461
:1003C400052AD8B4062AD8B4072A03AE0BD0001ED7
:1003D400011E021E031E002AD8B4012AD8B4022A20
:1003E400D8B4032A035007100E6E0EBE1CD020DEB4
:1003F4000CBE36D00DAE5BD0001E011E021E031EC5
:10040400002AD8B4012AD8B4022AD8B4032A081E70
:10041400091E0A1E0B1E082AD8B4092AD8B40A2AAF
:10042400D8B40B2A44D007AE15D003BE0DD0035068
:100434000B6E02500A6E0150096E0050086E036A7A
:10044400026A016A006AD6D7036A026A016A006A0C
:10045400002A000C031E021E011E001E0C8EC7D7AC
:10046400082AD8B4092AD8B40A2AD8B40B2A0450C2
:10047400085CD8A4BFD70550095CD8A4BBD70650E4
:100484000A5CD8A4B7D707500B5CD8A4B3D70B6ABF
:100494000A6A096A086A002AD8B4012AD8B4022A66
:1004A400D8B4032A03AEA6D70E6A0E88FF0C0E6AD0
:0A04B4000CA001D0B1DD000F120012
:1004BE00A80E176E020E186E470E196E000E1A6EEB
:1004CE008C0E2A6E020E2B6E000E2C6E000E2D6EF2
:1004DE009E0E226E020E236E000E246E000E256EF0
:1004EE00FF0E266EFF0E276E000E286E000E296E72
:1004FE00AC8A900EAB6E948E949C9EAA03D0AECF17
:06050E0000F0FBD7120013
:1005140030C01EF031C01FF032C000F0010E026E78
:10052400005004E002360290FF0FFBD702C01DF01A
:10053400021C216E33C001F0010E006E015004E074
:1005440000360090FF0FFBD700C020F0001E00C053
:100554001CF0120E3024E96E000E3120EA6E0250B7
:10056400EF120050EF16166A3852D8A4161E120E57
:10057400E95E1650000A03E01C50EF1602D020502A
:10058400EF12E6DEE80E046E030E056E000E066E34
:10059400076E8FDE00C043F001C044F002C045F096
:1005A40003C046F043C039F044C03AF045C03BF0C4
:1005B40046C03CF034C000F035C001F036C002F053
:1005C40037C003F000360090013602360336003699
:1005D40000900136023603360A0E046E000E056ED4
:1005E400066E076E66DE00C03DF001C03EF002C03C
:1005F4003FF003C040F000C004F001C005F002C0A9
:1006040006F003C007F043C000F044C001F045C049
:1006140002F046C003F0A4DE00C041F001C042F085
:1006240001C004F0056A0450051003E0020E006ED8
:1006340050D041C015F03DC004F03EC005F03FC0AD
:1006440006F040C007F039C000F03AC001F03BC0EA
:1006540002F03CC003F084DE08C000F009C001F0E1
:100664000AC002F00BC003F000C039F001C03AF038
:1006740002C03BF003C03CF03DC005F03EC006F0B4
:100684003FC007F040C008F0083207320632053296
:10069400089E08BC088E800E0818046E800E03188D
:1006A400045C08E10250075C05E10150065C02E1CC
:1006B4000050055CD8A0152A15C001F00132019E36
:1006C40001C01BF0070E015C03E2010E006E01D0B5
:0406D400006A1200A6
:1006D800316A326A690E476EE3DD210E0C6E760EC2
:1006E8000D6E0D2EFED70C2EFCD7000030C047F043
:1006F800D7DD210E0C6E760E0D6E0D2EFED70C2E4C
:10070800FCD70000C8DD005203E0BCDD00C031F0BA
:100718003150730A39E1200E476EC2DD210E0C6E8E
:10072800760E0D6E0D2EFED70C2EFCD70000B3DD15
:10073800005203E0A7DD00C031F0410E315C326E9B
:1007480009D021D020D01FD01ED01DD01CD01BD046
:100758001AD019D03250000AF4E03250010AF2E0FF
:100768003250020AF0E03250030AEEE03250040A36
:10077800ECE03250050AEAE03250060AE8E032506E
:10078800070AE6E0E6D711D03150740A0AE1010EF3
:10079800476E000E486EB5DD010E006E000E016E4C
:0E07A80005D03150650A01E1ABDD316A120067
:1007B6000900F5CFE6FF0006FBE10106F9E11200AC
:1007C600316A6F0E476E6DDD210E0C6E760E0D6E64
:1007D6000D2EFED70C2EFCD7000030C047F061DD91
:1007E600210E0C6E760E0D6E0D2EFED70C2EFCD73E
:1007F600000031506F0A07E04FDD005203E043DD91
:0A08060000C031F0F6D7316A12008D
:10081000306A620E476E48DD210E0C6E760E0D6E4C
:100820000D2EFED70C2EFCD7000030506F0A07E0CB
:1008300036DD005203E02ADD00C030F0F6D7306A22
:0A084000010E006E000E016E1200A2
:10084A00316A6C0E476E2BDD210E0C6E760E0D6E24
:10085A000D2EFED70C2EFCD7000030C047F01FDD4E
:10086A00210E0C6E760E0D6E0D2EFED70C2EFCD7B9
:10087A00000031506F0A07E00DDD005203E001DD90
:0A088A0000C031F0F6D7316A120009
:100894002F6A95909592B886B06A670EAF6EAC8455
:1008A4000CDE820E0C6EDD0E0D6E0D2EFED70C2EA0
:1008B400FCD700000000830E306E0F0E316E030E65
:1008C400326E020E336E800E346E250E356E000EBF
:1008D400366E376E386A1CDE00C02EF0820E0C6E47
:1008E400DD0E0D6E0D2EFED70C2EFCD70000000081
:1008F4008DDF410E306EA7DF460E306E62DF420E92
:08090400306EE8DEFFD7FFD7DB
:020000040030CA
:0D000100021F1EFF8381FF0FC00FE00F40A4
:00000001FF
