:0400000020EF05F0F8
:08000800046ED8CF05F0E0CF33
:1000100006F00001E9CF0CF0EACF07F0E1CF08F0DD
:10002000E2CF09F0D9CF0AF0DACF0BF0F3CF12F01C
:10003000F4CF13F0FACF14F0F5CF15F0F6CF16F099
:10004000F7CF17F000C00EF001C00FF002C010F0A3
:1000500003C011F0F2AA30EF00F0F2B40AEF01F0A1
:100060009DA036EF00F09EB00FEF01F0F2A83CEF3C
:1000700000F0F2B26FEF00F0F0A642EF00F0F0B047
:10008000A5EF00F0F0A848EF00F0F0B2CFEF00F0DD
:100090000EC000F00FC001F010C002F011C003F05C
:1000A0000CC0E9FF07C0EAFF078E08C0E1FF09C0E6
:1000B000E2FF0AC0D9FF0BC0DAFF12C0F3FF13C082
:1000C000F4FF14C0FAFF15C0F5FF16C0F6FF17C005
:1000D000F7FF045006C0E0FF05C0D8FF10009D8068
:1000E000010E646EF29248EF00F094988B98080E1F
:1000F000016E00D00000018E0ED0019E7F32D8B07C
:100100008B88D8A08B98018C06D0019C012EF6D745
:1001100000D000008B88500EE96EE92EFED700D08B
:1001200001BEEBD701BCF1D712000900F5520CE07B
:10013000F6CF7DF0F7CF7EF0F5CF7FF0D6DF7DC034
:10014000F6FF7EC0F7FFF1D712007C6A7B6A9D90B4
:100150008C0EF66E010EF76EE8DF0D0E7F6EC5DFBA
:100160000A0E7F6EC2DF7C5001080DE303E17B5075
:10017000F30809E3540E006E002EFED700D07B2A50
:10018000D8B47C2AF0D7F09048EF00F04154442BCB
:1001900031383638363832323031353B00007C6AFF
:1001A0007B6A6450010A03E0010A0FE01AD09D90B7
:1001B000080EF66E020EF76EB8DF0D0E7F6E95DF3D
:1001C0000A0E7F6E92DF646A0CD09D900E0EF66E62
:1001D000020EF76EAADF0D0E7F6E87DF0A0E7F6EAE
:1001E00084DF7C5001080DE303E17B50F30809E351
:1001F000540E006E002EFED700D07B2AD8B47C2A85
:10020000F0D7F09248EF00F04154410D0A004154FC
:10021000480D0A0092908970F29448EF00F07C6AD1
:100220007B6A95908C807C5003080DE303E17B5042
:10023000E70809E3540E006E002EFED700D07B2A9B
:10024000D8B47C2AF0D795908C909E9048EF00F01F
:100250004154442B31383638363832323031353B20
:100260000000EF5215E0EACF73F0E9CF72F0196A9F
:10027000F2BE198EF29EEFCF7FF037DF19BEF28EFD
:1002800073C0EAFF72C0E9FFE92AD8B4EA2AE9D7C5
:100290001200EA6A220EE96EE4DF290E006E002EDB
:1002A000FED70000EA6A2E0EE96EDBDF290E006E33
:1002B000002EFED70000EA6A350EE96ED2DF290E65
:1002C000006E002EFED70000EA6A270EE96EC9DF35
:1002D000290E006E002EFED7000093EF05F09EA8B9
:1002E000FED7AD6E1200EA6A740EE96EEF500EE0B2
:1002F000030E016E006A002EFED7012EFBD73C0EC6
:10030000006E002EFED700D0EF2EF2D712001E0E88
:10031000746EE9DF120092988998080E016E00D081
:100320000000018E0ED0019E7532D8B08988D8A009
:100330008998018C06D0019C012EF6D700D00000D0
:100340008988500EE96EE92EFED700D001BEEBD7AA
:1003500001BCF1D7AFEF01F074C075F0DCD712002B
:10036000726A72506F080DE0620EB9DFD0DF9EAA8C
:1003700004D09EAAFED7AECF72F072C074F0ECDF4C
:10038000F0D7726A94EF05F0736A73506F0810E04B
:100390006C0EA5DFBCDF7250A2DFB9DF9EAA04D0CD
:1003A0009EAAFED7AECF73F073C074F0D5DFEDD741
:1003B00097EF05F0736A73506F0810E06F0E8FDFD0
:1003C000A6DF72508CDFA3DF9EAA04D09EAAFED7C0
:1003D000AECF73F073C074F0BFDFEDD79AEF05F0C6
:1003E000726A690E7CDF93DF420E79DF90DF9594AD
:1003F0008C849EAA04D09EAAFED7AECF72F09594AC
:100400008C9472C001F09DEF05F0736A7250735CBA
:100410000CE295948C84640E746E65DF95948C94D4
:10042000C80E746E60DF732AF1D71200736A7250BF
:10043000E60FD8B058D21A0F74EF04F073506F085B
:1004400013E0770E4CDF63DF410E49DF60DF410EC2
:1004500046DF5DDF500E43DF5ADF9EAA04D09EAA1E
:10046000FED7AECF73F0EAD73ED273506F0813E0D9
:10047000770E35DF4CDF410E32DF49DF420E2FDFD2
:1004800046DF480E2CDF43DF9EAA04D09EAAFED78B
:10049000AECF73F0EAD727D273506F0813E0770E10
:1004A0001EDF35DF410E1BDF32DF430E18DF2FDF8B
:1004B000480E15DF2CDF9EAA04D09EAAFED7AECF31
:1004C00073F0EAD710D273506F0813E0770E07DF8E
:1004D0001EDF410E04DF1BDF440E01DF18DF480E74
:1004E000FEDE15DF9EAA04D09EAAFED7AECF73F023
:1004F000EAD7F9D173506F0813E0770EF0DE07DF0B
:10050000410EEDDE04DF450EEADE01DF480EE7DED8
:10051000FEDE9EAA04D09EAAFED7AECF73F0EAD725
:10052000E2D173506F0813E0770ED9DEF0DE410E92
:10053000D6DEEDDE460ED3DEEADE480ED0DEE7DEA6
:100540009EAA04D09EAAFED7AECF73F0EAD7CBD135
:1005500073506F0813E0770EC2DED9DE410EBFDEA6
:10056000D6DE470EBCDED3DE480EB9DED0DE9EAA54
:1005700004D09EAAFED7AECF73F0EAD7B4D17350A1
:100580006F0813E0770EABDEC2DE410EA8DEBFDEE1
:10059000480EA5DEBCDE480EA2DEB9DE9EAA04D05F
:1005A0009EAAFED7AECF73F0EAD79DD173506F08E5
:1005B00013E0770E94DEABDE410E91DEA8DE490E2D
:1005C0008EDEA5DE480E8BDEA2DE9EAA04D09EAA99
:1005D000FED7AECF73F0EAD786D173506F0813E021
:1005E000770E7DDE94DE410E7ADE91DE4A0E77DEF6
:1005F0008EDE480E74DE8BDE9EAA04D09EAAFED745
:10060000AECF73F0EAD76FD173506F0813E0770E57
:1006100066DE7DDE410E63DE7ADE4B0E60DE77DE67
:10062000480E5DDE74DE9EAA04D09EAAFED7AECF31
:1006300073F0EAD758D173506F0813E0770E4FDE8E
:1006400066DE410E4CDE63DE4C0E49DE60DE480E97
:1006500046DE5DDE9EAA04D09EAAFED7AECF73F022
:10066000EAD741D173506F0813E0770E38DE4FDEC2
:10067000410E35DE4CDE4D0E32DE49DE480E2FDEF9
:1006800046DE9EAA04D09EAAFED7AECF73F0EAD76C
:100690002AD173506F0813E0770E21DE38DE410E49
:1006A0001EDE35DE4E0E1BDE32DE480E18DE2FDE7D
:1006B0009EAA04D09EAAFED7AECF73F0EAD713D17C
:1006C00073506F0813E0770E0ADE21DE410E07DE5D
:1006D0001EDE4F0E04DE1BDE480E01DE18DE9EAA73
:1006E00004D09EAAFED7AECF73F0EAD7FCD07350E9
:1006F0006F0813E0770EF3DD0ADE410EF0DD07DE52
:10070000500EEDDD04DE480EEADD01DE9EAA04D0C7
:100710009EAAFED7AECF73F0EAD7E5D073506F082C
:1007200013E0770EDCDDF3DD410ED9DDF0DD510E97
:10073000D6DDEDDD480ED3DDEADD9EAA04D09EAA0B
:10074000FED7AECF73F0EAD7CED073506F0813E068
:10075000770EC5DDDCDD410EC2DDD9DD520EBFDD19
:10076000D6DD480EBCDDD3DD9EAA04D09EAAFED7FE
:10077000AECF73F0EAD7B7D073506F0813E0770E9F
:10078000AEDDC5DD410EABDDC2DD530EA8DDBFDD44
:10079000480EA5DDBCDD9EAA04D09EAAFED7AECF32
:1007A00073F0EAD7A0D073506F0813E0770E97DD8F
:1007B000AEDD410E94DDABDD540E91DDA8DD480EBB
:1007C0008EDDA5DD9EAA04D09EAAFED7AECF73F023
:1007D000EAD789D073506F0813E0770E80DD97DD7C
:1007E000410E7DDD94DD550E7ADD91DD480E77DD1D
:1007F0008EDD9EAA04D09EAAFED7AECF73F0EAD7B4
:1008000072D073506F0813E0770E69DD80DD410E02
:1008100066DD7DDD560E63DD7ADD480E60DD77DD59
:100820009EAA04D09EAAFED7AECF73F0EAD75BD0C3
:1008300073506F0813E0770E52DD69DD410E4FDD16
:1008400066DD570E4CDD63DD480E49DD60DD9EAA96
:1008500004D09EAAFED7AECF73F0EAD744D073502F
:100860006F0813E0770E3BDD52DD410E38DD4FDDC2
:10087000580E35DD4CDD480E32DD49DD9EAA04D030
:100880009EAAFED7AECF73F0EAD72DD073506F0873
:1008900013E0770E24DD3BDD410E21DD38DD590EFE
:1008A0001EDD35DD480E1BDD32DD9EAA04D09EAA7A
:1008B000FED7AECF73F0EAD716D073506F0813E0AF
:1008C000770E0DDD24DD410E0ADD21DD5A0E07DD38
:1008D0001EDD480E04DD1BDD9EAA04D09EAAFED7B5
:1008E000AECF73F0EAD71200E824F76AF736030FA9
:1008F000F66E090EF7220A00F550FA6E0800F55060
:10090000F96E3C046A049804C604F40422055005F8
:100910007E05AC05DA050806360664069206C006B2
:10092000EE061C074A077807A607D4070208300816
:100930005E088C08BA08726A640ED1DCE8DC420EEC
:10094000CEDCE5DC95948C849EAA04D09EAAFED7CA
:10095000AECF72F095948C9472C001F0EBEF05F07D
:10096000736A7250735C0CE295908C80320E746ED8
:10097000BADC95908C90640E746EB5DC732AF1D756
:100980001200726A640EABDCC2DC430EA8DCBFDC72
:1009900095948C849EAA04D09EAAFED7AECF72F006
:1009A00095948C9472C001F026EF06F0726A640E82
:1009B00096DCADDC440E93DCAADC95948C849EAA74
:1009C00004D09EAAFED7AECF72F095948C9472C0DC
:1009D00001F08AEF06F073C077F072C076F077C04E
:1009E00003F076C0E9FF77C0EAFFEF5204E0762A11
:1009F000D8B4772AF4D775C003F074C0E9FF75C086
:100A0000EAFFEF5213E074C0E9FF75C0EAFFEFCFD1
:100A10007AF077C0EAFF76C0E9FF7AC0EFFF762A66
:100A2000D8B4772A742AD8B4752AE5D776C0E9FFF6
:100A300077C0EAFFEF6A72C001F073C002F01200E3
:100A4000F86AD09E078EB896400EAF6EA60EAC6EBA
:100A5000900EAB6E94988B8892988988216A206A50
:100A6000646AC150C00B0F09C16E070EB46E21D06D
:100A700002001A000034002241540D0A004154269D
:100A8000570D0A00415445300D0A0041542B434D87
:100A900047463D310D0A004154480D0A004154417A
:100AA0000D0A004154442B31383638000200613BB6
:100AB0000000000EF86E0A0EF76E700EF66E09005A
:100AC000F550006E000A13E00900F550016EE8BE13
:100AD00005D00F0BEA6E0900F5CFE9FF01BC090054
:100AE00001AC0900F5CFEEFF004EE9D7F9D7F86A5F
:100AF0000F0E936EF19CF19AF198F292F090F092B1
:100B0000F2949E90840ED56EB50ECD6EF28AF28868
:100B1000F086F088C00EF212656A666A676A686AD3
:100B2000696A49EF01F01CD4420E726E2DD4460E54
:100B3000726E40D468524CE153D401C065F06550E8
:100B4000730A05E0070A3DE0110A3FE041D0200E9C
:100B50006FEC01F087EC01F09EAAFED7AECF67F0F4
:100B6000410E675C666E66500FE0010A13E0030AEF
:100B700012E0010A11E0070A15E0010A14E0030A75
:100B800013E0010A12E017D0010E726E3EDC010E76
:100B9000686E16D015D014D0010E726E36DC010EC0
:100BA000686E0ED00DD00CD00BD0010E726E2DDC05
:100BB000010E686E05D00B0E726E38DC010E686E89
:100BC00007D0020E726E21DC03D0030E726E1DDCA4
:100BD000682C37D0B0D601C065F06550720A05E0C8
:100BE000060A28E0110A2AE02CD0200E6FEC01F052
:100BF00087EC01F09EAAFED7AECF67F0410E675C8E
:100C0000666E66500BE0010A0FE0030A0EE0010A6F
:100C10000DE0070A0CE0010A0BE00BD0010E726E2A
:100C20009FDE020E686E05D004D003D002D001D042
:100C300000D007D0020E726E93DE03D0030E726EE8
:100C40008FDE68500208D8A46ED19BD601C065F033
:100C50006550720A07E0060AD8B45CD1110AD8B40C
:100C60005ED161D1200E6FEC01F087EC01F09EAAFD
:100C7000FED7AECF67F0410E675C666E665011E03E
:100C8000010A10E0030A0FE0010A0EE0070A0DE076
:100C9000010A0CE0030A0BE0010A0AE00F0A09E06E
:100CA00034D137D136D135D134D133D132D131D11C
:100CB00030D1010E726E05EC02F0010E726E50DE44
:100CC000500EF66E020EF76E196AF2BE198EF29E83
:100CD00095EC00F019BEF28E196AF2BE198EF29EE2
:100CE0000D0E7F6E75EC00F019BEF28E196AF2BE21
:100CF000198EF29E0A0E7F6E75EC00F019BEF28E10
:100D00000E0E726E16EC02F0696A69500608D8A4DD
:100D1000D1D04CD601C065F06550720A07E0060AD2
:100D2000D8B4BFD0110AD8B4C0D0C2D0200E6FEC56
:100D300001F087EC01F09EAAFED7AECF67F0410E1E
:100D4000675C666E665015E0010A21E0030A2DE03B
:100D5000010A39E0070A45E0010A51E0030A5DE0B3
:100D6000010A69E00F0AD8B474D0010AD8B47FD060
:100D70008CD0010E726E16EC02F0036A69506A0F95
:100D8000E96E000E0320EA6E300EEF6E89D0020E7F
:100D9000726E16EC02F0036A69506A0FE96E000E7B
:100DA0000320EA6E310EEF6E7BD0030E726E16ECEE
:100DB00002F0036A69506A0FE96E000E0320EA6EC2
:100DC000320EEF6E6DD0040E726E16EC02F0036AF6
:100DD00069506A0FE96E000E0320EA6E330EEF6E63
:100DE0005FD0050E726E16EC02F0036A69506A0F4E
:100DF000E96E000E0320EA6E340EEF6E51D0060E3F
:100E0000726E16EC02F0036A69506A0FE96E000E0A
:100E10000320EA6E350EEF6E43D0070E726E16ECAD
:100E200002F0036A69506A0FE96E000E0320EA6E51
:100E3000360EEF6E35D0080E726E16EC02F0036AB5
:100E400069506A0FE96E000E0320EA6E370EEF6EEE
:100E500027D0090E726E16EC02F0036A69506A0F11
:100E6000E96E000E0320EA6E380EEF6E19D00A0EFE
:100E7000726E16EC02F0036A69506A0FE96E000E9A
:100E80000320EA6E390EEF6E0BD0040E726E68DD31
:100E9000036A69506A0FE96E000E0320EA6EEF6A7A
:100EA00007D0020E726E5CDD03D0030E726E58DD49
:100EB000692A2BD7716A736A4D0E726E756A6A0E53
:100EC000746E89DD736A4D0E726E756A610E746E92
:100ED00082DDEA6A4D0EE96E31EC01F0196AF2BE6C
:100EE000198EF29E0D0E7F6E75EC00F019BEF28E1B
:100EF000196AF2BE198EF29E0A0E7F6E75EC00F032
:100F000019BEF28E696A686A04D0040E726E05EC2E
:100F100002F009D0020E726E05EC02F004D0030E4E
:0A0F2000726E05EC02F006D6FFD752
:020000040030CA
:0E00000000C2191E008700000FC00FE00F4065
:00000001FF
;PIC18F4620
;CRC=19CE  CREATED="07-Apr-17 13:07"
